{"abi":[{"type":"function","name":"REQUEST_DATA_VERSION","inputs":[],"outputs":[{"name":"","type":"uint16","internalType":"uint16"}],"stateMutability":"view"},{"type":"error","name":"EmptyArgs","inputs":[]},{"type":"error","name":"EmptySecrets","inputs":[]},{"type":"error","name":"EmptySource","inputs":[]},{"type":"error","name":"NoInlineSecrets","inputs":[]}],"bytecode":{"object":"0x608a610033600b8282823980515f1a607314602757634e487b7160e01b5f525f60045260245ffd5b305f52607381538281f3fe73000000000000000000000000000000000000000030146080604052600436106032575f3560e01c80635d641dfc146036575b5f80fd5b603d600181565b60405161ffff909116815260200160405180910390f3fea2646970667358221220eaf50ccd02497fb13ced3009b9fa4057702ce614b41f98204944e88306469e8564736f6c63430008180033","linkReferences":{}},"methodIdentifiers":{"REQUEST_DATA_VERSION()":"5d641dfc"},"id":50}