{"abi":[{"type":"function","name":"EVM_EXTRA_ARGS_V1_TAG","inputs":[],"outputs":[{"name":"","type":"bytes4","internalType":"bytes4"}],"stateMutability":"view"},{"type":"function","name":"GENERIC_EXTRA_ARGS_V2_TAG","inputs":[],"outputs":[{"name":"","type":"bytes4","internalType":"bytes4"}],"stateMutability":"view"},{"type":"function","name":"SUI_ACCOUNT_BYTE_SIZE","inputs":[],"outputs":[{"name":"","type":"uint256","internalType":"uint256"}],"stateMutability":"view"},{"type":"function","name":"SUI_EXTRA_ARGS_MAX_RECEIVER_OBJECT_IDS","inputs":[],"outputs":[{"name":"","type":"uint256","internalType":"uint256"}],"stateMutability":"view"},{"type":"function","name":"SUI_EXTRA_ARGS_V1_TAG","inputs":[],"outputs":[{"name":"","type":"bytes4","internalType":"bytes4"}],"stateMutability":"view"},{"type":"function","name":"SUI_MESSAGING_ACCOUNTS_OVERHEAD","inputs":[],"outputs":[{"name":"","type":"uint256","internalType":"uint256"}],"stateMutability":"view"},{"type":"function","name":"SUI_TOKEN_TRANSFER_DATA_OVERHEAD","inputs":[],"outputs":[{"name":"","type":"uint256","internalType":"uint256"}],"stateMutability":"view"},{"type":"function","name":"SVM_ACCOUNT_BYTE_SIZE","inputs":[],"outputs":[{"name":"","type":"uint256","internalType":"uint256"}],"stateMutability":"view"},{"type":"function","name":"SVM_EXTRA_ARGS_MAX_ACCOUNTS","inputs":[],"outputs":[{"name":"","type":"uint256","internalType":"uint256"}],"stateMutability":"view"},{"type":"function","name":"SVM_EXTRA_ARGS_V1_TAG","inputs":[],"outputs":[{"name":"","type":"bytes4","internalType":"bytes4"}],"stateMutability":"view"},{"type":"function","name":"SVM_MESSAGING_ACCOUNTS_OVERHEAD","inputs":[],"outputs":[{"name":"","type":"uint256","internalType":"uint256"}],"stateMutability":"view"},{"type":"function","name":"SVM_TOKEN_TRANSFER_DATA_OVERHEAD","inputs":[],"outputs":[{"name":"","type":"uint256","internalType":"uint256"}],"stateMutability":"view"}],"bytecode":{"object":"0x61018b610035600b8282823980515f1a60731461002957634e487b7160e01b5f525f60045260245ffd5b305f52607381538281f3fe73000000000000000000000000000000000000000030146080604052600436106100bc575f3560e01c80639713cbbd116100795780639713cbbd1461012e578063a5dd87d814610137578063b5f958fc14610145578063bd62fad91461010a578063f736d63a1461014d578063fe489112146100c0575f80fd5b80631ac428f8146100c05780633ab8c0d0146100db5780635dd8ee3e1461010257806371953f601461010a5780637498e3551461011257806390c21ba614610120575b5f80fd5b6100c8604081565b6040519081526020015b60405180910390f35b6100e96397a657c960e01b81565b6040516001600160e01b031990911681526020016100d2565b6100c8600281565b6100c8602081565b6100e9630181dcf160e41b81565b6100e96321ea4ca960e01b81565b6100c861012c81565b6100e9630f9d9d5d60e11b81565b6100c8600181565b6100c8606c8156fea2646970667358221220b49d186babd0b06493fc072dcb1748bec537b9a7a757e6c8a4483986d5224d1464736f6c63430008180033","linkReferences":{}},"methodIdentifiers":{"EVM_EXTRA_ARGS_V1_TAG()":"3ab8c0d0","GENERIC_EXTRA_ARGS_V2_TAG()":"7498e355","SUI_ACCOUNT_BYTE_SIZE()":"bd62fad9","SUI_EXTRA_ARGS_MAX_RECEIVER_OBJECT_IDS()":"fe489112","SUI_EXTRA_ARGS_V1_TAG()":"90c21ba6","SUI_MESSAGING_ACCOUNTS_OVERHEAD()":"b5f958fc","SUI_TOKEN_TRANSFER_DATA_OVERHEAD()":"f736d63a","SVM_ACCOUNT_BYTE_SIZE()":"71953f60","SVM_EXTRA_ARGS_MAX_ACCOUNTS()":"1ac428f8","SVM_EXTRA_ARGS_V1_TAG()":"a5dd87d8","SVM_MESSAGING_ACCOUNTS_OVERHEAD()":"5dd8ee3e","SVM_TOKEN_TRANSFER_DATA_OVERHEAD()":"9713cbbd"},"id":45}