{"abi":[{"type":"constructor","inputs":[{"name":"router","type":"address","internalType":"address"},{"name":"_donId","type":"bytes32","internalType":"bytes32"},{"name":"_subscriptionId","type":"uint64","internalType":"uint64"},{"name":"_sourceCode","type":"string","internalType":"string"}],"stateMutability":"nonpayable"},{"type":"function","name":"acceptOwnership","inputs":[],"outputs":[],"stateMutability":"nonpayable"},{"type":"function","name":"approve","inputs":[{"name":"to","type":"address","internalType":"address"},{"name":"tokenId","type":"uint256","internalType":"uint256"}],"outputs":[],"stateMutability":"nonpayable"},{"type":"function","name":"balanceOf","inputs":[{"name":"owner","type":"address","internalType":"address"}],"outputs":[{"name":"","type":"uint256","internalType":"uint256"}],"stateMutability":"view"},{"type":"function","name":"donId","inputs":[],"outputs":[{"name":"","type":"bytes32","internalType":"bytes32"}],"stateMutability":"view"},{"type":"function","name":"getApproved","inputs":[{"name":"tokenId","type":"uint256","internalType":"uint256"}],"outputs":[{"name":"","type":"address","internalType":"address"}],"stateMutability":"view"},{"type":"function","name":"handleOracleFulfillment","inputs":[{"name":"requestId","type":"bytes32","internalType":"bytes32"},{"name":"response","type":"bytes","internalType":"bytes"},{"name":"err","type":"bytes","internalType":"bytes"}],"outputs":[],"stateMutability":"nonpayable"},{"type":"function","name":"isApprovedForAll","inputs":[{"name":"owner","type":"address","internalType":"address"},{"name":"operator","type":"address","internalType":"address"}],"outputs":[{"name":"","type":"bool","internalType":"bool"}],"stateMutability":"view"},{"type":"function","name":"name","inputs":[],"outputs":[{"name":"","type":"string","internalType":"string"}],"stateMutability":"view"},{"type":"function","name":"owner","inputs":[],"outputs":[{"name":"","type":"address","internalType":"address"}],"stateMutability":"view"},{"type":"function","name":"ownerOf","inputs":[{"name":"tokenId","type":"uint256","internalType":"uint256"}],"outputs":[{"name":"","type":"address","internalType":"address"}],"stateMutability":"view"},{"type":"function","name":"pendingRequests","inputs":[{"name":"","type":"bytes32","internalType":"bytes32"}],"outputs":[{"name":"requester","type":"address","internalType":"address"},{"name":"tokenUri","type":"string","internalType":"string"},{"name":"documentHash","type":"bytes32","internalType":"bytes32"}],"stateMutability":"view"},{"type":"function","name":"requestMint","inputs":[{"name":"args","type":"string[]","internalType":"string[]"},{"name":"tokenUri","type":"string","internalType":"string"},{"name":"documentHash","type":"bytes32","internalType":"bytes32"}],"outputs":[{"name":"requestId","type":"bytes32","internalType":"bytes32"}],"stateMutability":"nonpayable"},{"type":"function","name":"safeTransferFrom","inputs":[{"name":"from","type":"address","internalType":"address"},{"name":"to","type":"address","internalType":"address"},{"name":"tokenId","type":"uint256","internalType":"uint256"}],"outputs":[],"stateMutability":"nonpayable"},{"type":"function","name":"safeTransferFrom","inputs":[{"name":"from","type":"address","internalType":"address"},{"name":"to","type":"address","internalType":"address"},{"name":"tokenId","type":"uint256","internalType":"uint256"},{"name":"data","type":"bytes","internalType":"bytes"}],"outputs":[],"stateMutability":"nonpayable"},{"type":"function","name":"setApprovalForAll","inputs":[{"name":"operator","type":"address","internalType":"address"},{"name":"approved","type":"bool","internalType":"bool"}],"outputs":[],"stateMutability":"nonpayable"},{"type":"function","name":"setDonId","inputs":[{"name":"_donId","type":"bytes32","internalType":"bytes32"}],"outputs":[],"stateMutability":"nonpayable"},{"type":"function","name":"setSourceCode","inputs":[{"name":"_sourceCode","type":"string","internalType":"string"}],"outputs":[],"stateMutability":"nonpayable"},{"type":"function","name":"setSubscriptionId","inputs":[{"name":"_subscriptionId","type":"uint64","internalType":"uint64"}],"outputs":[],"stateMutability":"nonpayable"},{"type":"function","name":"sourceCode","inputs":[],"outputs":[{"name":"","type":"string","internalType":"string"}],"stateMutability":"view"},{"type":"function","name":"subscriptionId","inputs":[],"outputs":[{"name":"","type":"uint64","internalType":"uint64"}],"stateMutability":"view"},{"type":"function","name":"supportsInterface","inputs":[{"name":"interfaceId","type":"bytes4","internalType":"bytes4"}],"outputs":[{"name":"","type":"bool","internalType":"bool"}],"stateMutability":"view"},{"type":"function","name":"symbol","inputs":[],"outputs":[{"name":"","type":"string","internalType":"string"}],"stateMutability":"view"},{"type":"function","name":"tokenDocumentHashes","inputs":[{"name":"","type":"uint256","internalType":"uint256"}],"outputs":[{"name":"","type":"bytes32","internalType":"bytes32"}],"stateMutability":"view"},{"type":"function","name":"tokenURI","inputs":[{"name":"tokenId","type":"uint256","internalType":"uint256"}],"outputs":[{"name":"","type":"string","internalType":"string"}],"stateMutability":"view"},{"type":"function","name":"transferFrom","inputs":[{"name":"from","type":"address","internalType":"address"},{"name":"to","type":"address","internalType":"address"},{"name":"tokenId","type":"uint256","internalType":"uint256"}],"outputs":[],"stateMutability":"nonpayable"},{"type":"function","name":"transferOwnership","inputs":[{"name":"to","type":"address","internalType":"address"}],"outputs":[],"stateMutability":"nonpayable"},{"type":"event","name":"Approval","inputs":[{"name":"owner","type":"address","indexed":true,"internalType":"address"},{"name":"approved","type":"address","indexed":true,"internalType":"address"},{"name":"tokenId","type":"uint256","indexed":true,"internalType":"uint256"}],"anonymous":false},{"type":"event","name":"ApprovalForAll","inputs":[{"name":"owner","type":"address","indexed":true,"internalType":"address"},{"name":"operator","type":"address","indexed":true,"internalType":"address"},{"name":"approved","type":"bool","indexed":false,"internalType":"bool"}],"anonymous":false},{"type":"event","name":"AssetMinted","inputs":[{"name":"tokenId","type":"uint256","indexed":true,"internalType":"uint256"},{"name":"owner","type":"address","indexed":false,"internalType":"address"},{"name":"tokenUri","type":"string","indexed":false,"internalType":"string"},{"name":"documentHash","type":"bytes32","indexed":false,"internalType":"bytes32"}],"anonymous":false},{"type":"event","name":"BatchMetadataUpdate","inputs":[{"name":"_fromTokenId","type":"uint256","indexed":false,"internalType":"uint256"},{"name":"_toTokenId","type":"uint256","indexed":false,"internalType":"uint256"}],"anonymous":false},{"type":"event","name":"MetadataUpdate","inputs":[{"name":"_tokenId","type":"uint256","indexed":false,"internalType":"uint256"}],"anonymous":false},{"type":"event","name":"OwnershipTransferRequested","inputs":[{"name":"from","type":"address","indexed":true,"internalType":"address"},{"name":"to","type":"address","indexed":true,"internalType":"address"}],"anonymous":false},{"type":"event","name":"OwnershipTransferred","inputs":[{"name":"from","type":"address","indexed":true,"internalType":"address"},{"name":"to","type":"address","indexed":true,"internalType":"address"}],"anonymous":false},{"type":"event","name":"RequestFulfilled","inputs":[{"name":"id","type":"bytes32","indexed":true,"internalType":"bytes32"}],"anonymous":false},{"type":"event","name":"RequestSent","inputs":[{"name":"id","type":"bytes32","indexed":true,"internalType":"bytes32"}],"anonymous":false},{"type":"event","name":"Transfer","inputs":[{"name":"from","type":"address","indexed":true,"internalType":"address"},{"name":"to","type":"address","indexed":true,"internalType":"address"},{"name":"tokenId","type":"uint256","indexed":true,"internalType":"uint256"}],"anonymous":false},{"type":"event","name":"VerificationFailed","inputs":[{"name":"requestId","type":"bytes32","indexed":true,"internalType":"bytes32"},{"name":"reason","type":"string","indexed":false,"internalType":"string"}],"anonymous":false},{"type":"event","name":"VerificationRequested","inputs":[{"name":"requestId","type":"bytes32","indexed":true,"internalType":"bytes32"},{"name":"requester","type":"address","indexed":false,"internalType":"address"},{"name":"tokenUri","type":"string","indexed":false,"internalType":"string"}],"anonymous":false},{"type":"error","name":"ERC721IncorrectOwner","inputs":[{"name":"sender","type":"address","internalType":"address"},{"name":"tokenId","type":"uint256","internalType":"uint256"},{"name":"owner","type":"address","internalType":"address"}]},{"type":"error","name":"ERC721InsufficientApproval","inputs":[{"name":"operator","type":"address","internalType":"address"},{"name":"tokenId","type":"uint256","internalType":"uint256"}]},{"type":"error","name":"ERC721InvalidApprover","inputs":[{"name":"approver","type":"address","internalType":"address"}]},{"type":"error","name":"ERC721InvalidOperator","inputs":[{"name":"operator","type":"address","internalType":"address"}]},{"type":"error","name":"ERC721InvalidOwner","inputs":[{"name":"owner","type":"address","internalType":"address"}]},{"type":"error","name":"ERC721InvalidReceiver","inputs":[{"name":"receiver","type":"address","internalType":"address"}]},{"type":"error","name":"ERC721InvalidSender","inputs":[{"name":"sender","type":"address","internalType":"address"}]},{"type":"error","name":"ERC721NonexistentToken","inputs":[{"name":"tokenId","type":"uint256","internalType":"uint256"}]},{"type":"error","name":"EmptyArgs","inputs":[]},{"type":"error","name":"EmptySource","inputs":[]},{"type":"error","name":"NoInlineSecrets","inputs":[]},{"type":"error","name":"OnlyRouterCanFulfill","inputs":[]}],"bytecode":{"object":"0x60a060405234801562000010575f80fd5b5060405162002edd38038062002edd833981016040819052620000339162000229565b33805f866040518060400160405280600a815260200169556e697175652052574160b01b815250604051806040016040528060048152602001635552574160e01b815250815f9081620000879190620003c2565b506001620000968282620003c2565b5050506001600160a01b039081166080528216620000fb5760405162461bcd60e51b815260206004820152601860248201527f43616e6e6f7420736574206f776e657220746f207a65726f000000000000000060448201526064015b60405180910390fd5b600780546001600160a01b0319166001600160a01b03848116919091179091558116156200012e576200012e816200016a565b505050600a839055600c80546001600160401b0319166001600160401b038416179055600b6200015f8282620003c2565b50505050506200048e565b336001600160a01b03821603620001c45760405162461bcd60e51b815260206004820152601760248201527f43616e6e6f74207472616e7366657220746f2073656c660000000000000000006044820152606401620000f2565b600880546001600160a01b0319166001600160a01b03838116918217909255600754604051919216907fed8889f560326eb138920d842192f0eb3dd22b4f139c87a2c57538e05bae1278905f90a350565b634e487b7160e01b5f52604160045260245ffd5b5f805f80608085870312156200023d575f80fd5b84516001600160a01b038116811462000254575f80fd5b60208681015160408801519296509450906001600160401b0380821682146200027b575f80fd5b60608801519194508082111562000290575f80fd5b818801915088601f830112620002a4575f80fd5b815181811115620002b957620002b962000215565b604051601f8201601f19908116603f01168101908382118183101715620002e457620002e462000215565b816040528281528b86848701011115620002fc575f80fd5b5f93505b828410156200031f578484018601518185018701529285019262000300565b5f86848301015280965050505050505092959194509250565b600181811c908216806200034d57607f821691505b6020821081036200036c57634e487b7160e01b5f52602260045260245ffd5b50919050565b601f821115620003bd57805f5260205f20601f840160051c81016020851015620003995750805b601f840160051c820191505b81811015620003ba575f8155600101620003a5565b50505b505050565b81516001600160401b03811115620003de57620003de62000215565b620003f681620003ef845462000338565b8462000372565b602080601f8311600181146200042c575f8415620004145750858301515b5f19600386901b1c1916600185901b17855562000486565b5f85815260208120601f198616915b828110156200045c578886015182559484019460019091019084016200043b565b50858210156200047a57878501515f19600388901b60f8161c191681555b505060018460011b0185555b505050505050565b608051612a2f620004ae5f395f81816104b1015261116d0152612a2f5ff3fe608060405234801561000f575f80fd5b5060043610610186575f3560e01c806370a08231116100d957806395d89b4111610093578063c87b56dd1161006e578063c87b56dd14610371578063e985e9c514610384578063ea7b4f7714610397578063f2fde38b146103aa575f80fd5b806395d89b4114610343578063a22cb4651461034b578063b88d4fde1461035e575f80fd5b806370a08231146102dc57806378ca5de7146102ef57806379ba509714610302578063809648051461030a5780638da5cb5b146103295780638dbe7b9d1461033a575f80fd5b80630ca761751161014457806323b872dd1161011f57806323b872dd146102815780632795ad201461029457806342842e0e146102b65780636352211e146102c9575f80fd5b80630ca761751461024557806313c60177146102585780631dc559d914610260575f80fd5b8062b467671461018a57806301ffc9a71461019f57806306fdde03146101c7578063081812fc146101dc578063095ea7b31461020757806309c1ba2e1461021a575b5f80fd5b61019d6101983660046121ae565b6103bd565b005b6101b26101ad3660046121f4565b6103d5565b60405190151581526020015b60405180910390f35b6101cf6103e5565b6040516101be919061225c565b6101ef6101ea36600461226e565b610474565b6040516001600160a01b0390911681526020016101be565b61019d6102153660046122a0565b61049b565b600c5461022d906001600160401b031681565b6040516001600160401b0390911681526020016101be565b61019d6102533660046122c8565b6104a6565b6101cf610529565b61027361026e366004612373565b6105b5565b6040519081526020016101be565b61019d61028f36600461240b565b6107ba565b6102a76102a236600461226e565b610848565b6040516101be93929190612444565b61019d6102c436600461240b565b6108fa565b6101ef6102d736600461226e565b610919565b6102736102ea366004612477565b610923565b61019d6102fd36600461226e565b610968565b61019d610975565b61027361031836600461226e565b600e6020525f908152604090205481565b6007546001600160a01b03166101ef565b610273600a5481565b6101cf610a22565b61019d610359366004612490565b610a31565b61019d61036c3660046124c9565b610a3c565b6101cf61037f36600461226e565b610a54565b6101b261039236600461252c565b610a5f565b61019d6103a536600461255d565b610a8c565b61019d6103b8366004612477565b610ab7565b6103c5610acb565b600b6103d182826125ff565b5050565b5f6103df82610b20565b92915050565b60605f80546103f390612583565b80601f016020809104026020016040519081016040528092919081815260200182805461041f90612583565b801561046a5780601f106104415761010080835404028352916020019161046a565b820191905f5260205f20905b81548152906001019060200180831161044d57829003601f168201915b5050505050905090565b5f61047e82610b44565b505f828152600460205260409020546001600160a01b03166103df565b6103d1828233610b7c565b336001600160a01b037f000000000000000000000000000000000000000000000000000000000000000016146104ef5760405163c6829f8360e01b815260040160405180910390fd5b6104fa838383610b89565b60405183907f85e1543bf2f84fe80c6badbce3648c8539ad1df4d2b3d822938ca0538be727e6905f90a2505050565b600b805461053690612583565b80601f016020809104026020016040519081016040528092919081815260200182805461056290612583565b80156105ad5780601f10610584576101008083540402835291602001916105ad565b820191905f5260205f20905b81548152906001019060200180831161059057829003601f168201915b505050505081565b5f6105f46040805160e08101909152805f81526020015f81526020015f8152602001606081526020016060815260200160608152602001606081525090565b61068f600b805461060490612583565b80601f016020809104026020016040519081016040528092919081815260200182805461063090612583565b801561067b5780601f106106525761010080835404028352916020019161067b565b820191905f5260205f20905b81548152906001019060200180831161065e57829003601f168201915b505050505082610e7090919063ffffffff16565b85156106a9576106a96106a287896126ba565b8290610e7c565b6106d16106b582610ea5565b600c54600a546001600160401b0390911690620493e090611169565b91506040518060600160405280336001600160a01b0316815260200186868080601f0160208091040260200160405190810160405280939291908181526020018383808284375f9201829052509385525050506020918201869052848152600d825260409020825181546001600160a01b0319166001600160a01b0390911617815590820151600182019061076690826125ff565b5060408201518160020155905050817f29a6ea4327ca12da11491b435a448592d72a17e4bc83c1110e2d81aac2c598f63387876040516107a89392919061273b565b60405180910390a25095945050505050565b6001600160a01b0382166107e857604051633250574960e11b81525f60048201526024015b60405180910390fd5b5f6107f4838333611236565b9050836001600160a01b0316816001600160a01b031614610842576040516364283d7b60e01b81526001600160a01b03808616600483015260248201849052821660448201526064016107df565b50505050565b600d6020525f9081526040902080546001820180546001600160a01b03909216929161087390612583565b80601f016020809104026020016040519081016040528092919081815260200182805461089f90612583565b80156108ea5780601f106108c1576101008083540402835291602001916108ea565b820191905f5260205f20905b8154815290600101906020018083116108cd57829003601f168201915b5050505050908060020154905083565b61091483838360405180602001604052805f815250610a3c565b505050565b5f6103df82610b44565b5f6001600160a01b03821661094d576040516322718ad960e21b81525f60048201526024016107df565b506001600160a01b03165f9081526003602052604090205490565b610970610acb565b600a55565b6008546001600160a01b031633146109c85760405162461bcd60e51b815260206004820152601660248201527526bab9ba10313290383937b837b9b2b21037bbb732b960511b60448201526064016107df565b600780546001600160a01b0319808216339081179093556008805490911690556040516001600160a01b03909116919082907f8be0079c531659141344cd1fd0a4f28419497f9722a3daafe3b4186f6b6457e0905f90a350565b6060600180546103f390612583565b6103d1338383611328565b610a478484846107ba565b61084233858585856113ef565b60606103df82611517565b6001600160a01b039182165f90815260056020908152604080832093909416825291909152205460ff1690565b610a94610acb565b600c805467ffffffffffffffff19166001600160401b0392909216919091179055565b610abf610acb565b610ac881611598565b50565b6007546001600160a01b03163314610b1e5760405162461bcd60e51b815260206004820152601660248201527527b7363c9031b0b63630b1363290313c9037bbb732b960511b60448201526064016107df565b565b5f6001600160e01b03198216632483248360e11b14806103df57506103df82611641565b5f818152600260205260408120546001600160a01b0316806103df57604051637e27328960e01b8152600481018490526024016107df565b6109148383836001611690565b5f838152600d6020908152604080832081516060810190925280546001600160a01b031682526001810180549293919291840191610bc690612583565b80601f0160208091040260200160405190810160405280929190818152602001828054610bf290612583565b8015610c3d5780601f10610c1457610100808354040283529160200191610c3d565b820191905f5260205f20905b815481529060010190602001808311610c2057829003601f168201915b50505091835250506002919091015460209091015280519091506001600160a01b0316610ca05760405162461bcd60e51b815260206004820152601160248201527014995c5d595cdd081b9bdd08199bdd5b99607a1b60448201526064016107df565b815115610d1757837f1b274bac0e8bb49d3ad90709790a3bf2aa1b86313b4c1a7ae5af9cb7832f720483604051610cd7919061225c565b60405180910390a25f848152600d6020526040812080546001600160a01b031916815590610d08600183018261207d565b600282015f9055505050505050565b5f83806020019051810190610d2c919061277a565b905080600103610dce57600980545f9182610d46836127a5565b919050559050610d59835f015182611794565b610d678184602001516117ad565b8260400151600e5f8381526020019081526020015f2081905550807f330b73d1dc0dfe85226633fe9a019cf5a2708e477faf7bdd476d70289b666fa3845f015185602001518660400151604051610dc093929190612444565b60405180910390a250610e37565b847f1b274bac0e8bb49d3ad90709790a3bf2aa1b86313b4c1a7ae5af9cb7832f7204604051610e2e9060208082526018908201527f414920566572696669636174696f6e2052656a65637465640000000000000000604082015260600190565b60405180910390a25b5f858152600d6020526040812080546001600160a01b031916815590610e60600183018261207d565b600282015f905550505050505050565b6103d1825f80846117fc565b80515f03610e9d5760405163fe936cb760e01b815260040160405180910390fd5b60a090910152565b60605f610eb3610100611879565b9050610eec6040518060400160405280600c81526020016b31b7b232a637b1b0ba34b7b760a11b8152508261189990919063ffffffff16565b8251610f0a906002811115610f0357610f036127bd565b82906118b2565b6040805180820190915260088152676c616e677561676560c01b6020820152610f34908290611899565b6040830151610f4b908015610f0357610f036127bd565b604080518082019091526006815265736f7572636560d01b6020820152610f73908290611899565b6060830151610f83908290611899565b60a0830151511561100e576040805180820190915260048152636172677360e01b6020820152610fb4908290611899565b610fbd816118eb565b5f5b8360a001515181101561100457610ffc8460a001518281518110610fe557610fe56127d1565b60200260200101518361189990919063ffffffff16565b600101610fbf565b5061100e8161190f565b608083015151156110d1575f83602001516002811115611030576110306127bd565b0361104e5760405163a80d31f760e01b815260040160405180910390fd5b60408051808201909152600f81526e39b2b1b932ba39a637b1b0ba34b7b760891b602082015261107f908290611899565b61109883602001516002811115610f0357610f036127bd565b6040805180820190915260078152667365637265747360c81b60208201526110c1908290611899565b60808301516110d190829061192d565b60c083015151156111615760408051808201909152600981526862797465734172677360b81b6020820152611107908290611899565b611110816118eb565b5f5b8360c00151518110156111575761114f8460c001518281518110611138576111386127d1565b60200260200101518361192d90919063ffffffff16565b600101611112565b506111618161190f565b515192915050565b5f807f00000000000000000000000000000000000000000000000000000000000000006001600160a01b031663461d27628688600188886040518663ffffffff1660e01b81526004016111c09594939291906127e5565b6020604051808303815f875af11580156111dc573d5f803e3d5ffd5b505050506040513d601f19601f82011682018060405250810190611200919061277a565b60405190915081907f1131472297a800fee664d1d89cfa8f7676ff07189ecc53f80bbb5f4969099db8905f90a295945050505050565b5f828152600260205260408120546001600160a01b03908116908316156112625761126281848661193a565b6001600160a01b0381161561129c5761127d5f855f80611690565b6001600160a01b0381165f90815260036020526040902080545f190190555b6001600160a01b038516156112ca576001600160a01b0385165f908152600360205260409020805460010190555b5f8481526002602052604080822080546001600160a01b0319166001600160a01b0389811691821790925591518793918516917fddf252ad1be2c89b69c2b068fc378daa952ba7f163c4a11628f55a4df523b3ef91a4949350505050565b6001600160a01b0383166113515760405163a9fbf51f60e01b81525f60048201526024016107df565b6001600160a01b03821661138357604051630b61174360e31b81526001600160a01b03831660048201526024016107df565b6001600160a01b038381165f81815260056020908152604080832094871680845294825291829020805460ff191686151590811790915591519182527f17307eab39ab6107e8899845ad3d59bd9653f200f220920489ca2b5937696c31910160405180910390a3505050565b6001600160a01b0383163b1561151057604051630a85bd0160e11b81526001600160a01b0384169063150b7a029061143190889088908790879060040161282d565b6020604051808303815f875af192505050801561146b575060408051601f3d908101601f1916820190925261146891810190612869565b60015b6114d2573d808015611498576040519150601f19603f3d011682016040523d82523d5f602084013e61149d565b606091505b5080515f036114ca57604051633250574960e11b81526001600160a01b03851660048201526024016107df565b805160208201fd5b6001600160e01b03198116630a85bd0160e11b1461150e57604051633250574960e11b81526001600160a01b03851660048201526024016107df565b505b5050505050565b606061152282610b44565b505f61153860408051602081019091525f815290565b90505f6115448461199e565b905081515f03611555579392505050565b80511561158757818160405160200161156f929190612884565b60405160208183030381529060405292505050919050565b61159084611a3d565b949350505050565b336001600160a01b038216036115f05760405162461bcd60e51b815260206004820152601760248201527f43616e6e6f74207472616e7366657220746f2073656c6600000000000000000060448201526064016107df565b600880546001600160a01b0319166001600160a01b03838116918217909255600754604051919216907fed8889f560326eb138920d842192f0eb3dd22b4f139c87a2c57538e05bae1278905f90a350565b5f6001600160e01b031982166380ac58cd60e01b148061167157506001600160e01b03198216635b5e139f60e01b145b806103df57506301ffc9a760e01b6001600160e01b03198316146103df565b80806116a457506001600160a01b03821615155b15611765575f6116b384610b44565b90506001600160a01b038316158015906116df5750826001600160a01b0316816001600160a01b031614155b80156116f257506116f08184610a5f565b155b1561171b5760405163a9fbf51f60e01b81526001600160a01b03841660048201526024016107df565b81156117635783856001600160a01b0316826001600160a01b03167f8c5be1e5ebec7d5bd14f71427d1e84f3dd0314c0f7b2291e5b200ac8c7c3b92560405160405180910390a45b505b50505f90815260046020526040902080546001600160a01b0319166001600160a01b0392909216919091179055565b6103d1828260405180602001604052805f815250611aae565b5f8281526006602052604090206117c482826125ff565b506040518281527ff8e1a15aba9398e019f0b49df1a4fde98ee17ae345cb5f6b5e2c27f5033e8ce79060200160405180910390a15050565b80515f0361181d576040516322ce3edd60e01b815260040160405180910390fd5b83836002811115611830576118306127bd565b90816002811115611843576118436127bd565b90525060408401828015611859576118596127bd565b90818015611869576118696127bd565b9052506060909301929092525050565b6118816120b4565b805161188d9083611ac5565b505f6020820152919050565b6118a68260038351611b39565b81516109149082611c52565b81516118bf9060c2611c72565b506103d182826040516020016118d791815260200190565b60405160208183030381529060405261192d565b6118f6816004611cd9565b60018160200181815161190991906128b2565b90525050565b61191a816007611cd9565b60018160200181815161190991906128c5565b6118a68260028351611b39565b611945838383611cf0565b610914576001600160a01b03831661197357604051637e27328960e01b8152600481018290526024016107df565b60405163177e802f60e01b81526001600160a01b0383166004820152602481018290526044016107df565b5f8181526006602052604090208054606091906119ba90612583565b80601f01602080910402602001604051908101604052809291908181526020018280546119e690612583565b8015611a315780601f10611a0857610100808354040283529160200191611a31565b820191905f5260205f20905b815481529060010190602001808311611a1457829003601f168201915b50505050509050919050565b6060611a4882610b44565b505f611a5e60408051602081019091525f815290565b90505f815111611a7c5760405180602001604052805f815250611aa7565b80611a8684611d51565b604051602001611a97929190612884565b6040516020818303038152906040525b9392505050565b611ab88383611de0565b610914335f8585856113ef565b60408051808201909152606081525f6020820152611ae46020836128d8565b15611b0c57611af46020836128d8565b611aff9060206128c5565b611b0990836128b2565b91505b60208084018390526040518085525f8152908184010181811015611b2e575f80fd5b604052509192915050565b6017816001600160401b031611611b5f5782516108429060e0600585901b168317611c72565b60ff816001600160401b031611611b9f578251611b87906018611fe0600586901b1617611c72565b508251610842906001600160401b0383166001611e41565b61ffff816001600160401b031611611be0578251611bc8906019611fe0600586901b1617611c72565b508251610842906001600160401b0383166002611e41565b63ffffffff816001600160401b031611611c23578251611c0b90601a611fe0600586901b1617611c72565b508251610842906001600160401b0383166004611e41565b8251611c3a90601b611fe0600586901b1617611c72565b508251610842906001600160401b0383166008611e41565b60408051808201909152606081525f6020820152611aa783838451611ec3565b60408051808201909152606081525f60208201528251515f611c958260016128b2565b905084602001518210611cb657611cb685611cb18360026128f7565b611f8f565b8451602083820101858153508051821115611ccf578181525b5093949350505050565b815161091490601f611fe0600585901b1617611c72565b5f6001600160a01b038316158015906115905750826001600160a01b0316846001600160a01b03161480611d295750611d298484610a5f565b806115905750505f908152600460205260409020546001600160a01b03908116911614919050565b60605f611d5d83611fa6565b60010190505f816001600160401b03811115611d7b57611d7b6120ff565b6040519080825280601f01601f191660200182016040528015611da5576020820181803683370190505b5090508181016020015b5f19016f181899199a1a9b1b9c1cb0b131b232b360811b600a86061a8153600a8504945084611daf57509392505050565b6001600160a01b038216611e0957604051633250574960e11b81525f60048201526024016107df565b5f611e1583835f611236565b90506001600160a01b03811615610914576040516339e3563760e11b81525f60048201526024016107df565b60408051808201909152606081525f60208201528351515f611e6382856128b2565b90508560200151811115611e8057611e8086611cb18360026128f7565b5f6001611e8f866101006129ee565b611e9991906128c5565b90508651828101878319825116178152508051831115611eb7578281525b50959695505050505050565b60408051808201909152606081525f60208201528251821115611ee4575f80fd5b8351515f611ef284836128b2565b90508560200151811115611f0f57611f0f86611cb18360026128f7565b85518051838201602001915f9180851115611f28578482525b505050602086015b60208610611f685780518252611f476020836128b2565b9150611f546020826128b2565b9050611f616020876128c5565b9550611f30565b5181515f1960208890036101000a0190811690199190911617905250849150509392505050565b8151611f9b8383611ac5565b506108428382611c52565b5f8072184f03e93ff9f4daa797ed6e38ed64bf6a1f0160401b8310611fe45772184f03e93ff9f4daa797ed6e38ed64bf6a1f0160401b830492506040015b6d04ee2d6d415b85acef81000000008310612010576d04ee2d6d415b85acef8100000000830492506020015b662386f26fc10000831061202e57662386f26fc10000830492506010015b6305f5e1008310612046576305f5e100830492506008015b612710831061205a57612710830492506004015b6064831061206c576064830492506002015b600a83106103df5760010192915050565b50805461208990612583565b5f825580601f10612098575050565b601f0160209004905f5260205f2090810190610ac891906120e7565b60405180604001604052806120db6040518060400160405280606081526020015f81525090565b81526020015f81525090565b5b808211156120fb575f81556001016120e8565b5090565b634e487b7160e01b5f52604160045260245ffd5b604051601f8201601f191681016001600160401b038111828210171561213b5761213b6120ff565b604052919050565b5f82601f830112612152575f80fd5b81356001600160401b0381111561216b5761216b6120ff565b61217e601f8201601f1916602001612113565b818152846020838601011115612192575f80fd5b816020850160208301375f918101602001919091529392505050565b5f602082840312156121be575f80fd5b81356001600160401b038111156121d3575f80fd5b61159084828501612143565b6001600160e01b031981168114610ac8575f80fd5b5f60208284031215612204575f80fd5b8135611aa7816121df565b5f5b83811015612229578181015183820152602001612211565b50505f910152565b5f815180845261224881602086016020860161220f565b601f01601f19169290920160200192915050565b602081525f611aa76020830184612231565b5f6020828403121561227e575f80fd5b5035919050565b80356001600160a01b038116811461229b575f80fd5b919050565b5f80604083850312156122b1575f80fd5b6122ba83612285565b946020939093013593505050565b5f805f606084860312156122da575f80fd5b8335925060208401356001600160401b03808211156122f7575f80fd5b61230387838801612143565b93506040860135915080821115612318575f80fd5b5061232586828701612143565b9150509250925092565b5f8083601f84011261233f575f80fd5b5081356001600160401b03811115612355575f80fd5b60208301915083602082850101111561236c575f80fd5b9250929050565b5f805f805f60608688031215612387575f80fd5b85356001600160401b038082111561239d575f80fd5b818801915088601f8301126123b0575f80fd5b8135818111156123be575f80fd5b8960208260051b85010111156123d2575f80fd5b6020928301975095509087013590808211156123ec575f80fd5b506123f98882890161232f565b96999598509660400135949350505050565b5f805f6060848603121561241d575f80fd5b61242684612285565b925061243460208501612285565b9150604084013590509250925092565b6001600160a01b03841681526060602082018190525f9061246790830185612231565b9050826040830152949350505050565b5f60208284031215612487575f80fd5b611aa782612285565b5f80604083850312156124a1575f80fd5b6124aa83612285565b9150602083013580151581146124be575f80fd5b809150509250929050565b5f805f80608085870312156124dc575f80fd5b6124e585612285565b93506124f360208601612285565b92506040850135915060608501356001600160401b03811115612514575f80fd5b61252087828801612143565b91505092959194509250565b5f806040838503121561253d575f80fd5b61254683612285565b915061255460208401612285565b90509250929050565b5f6020828403121561256d575f80fd5b81356001600160401b0381168114611aa7575f80fd5b600181811c9082168061259757607f821691505b6020821081036125b557634e487b7160e01b5f52602260045260245ffd5b50919050565b601f82111561091457805f5260205f20601f840160051c810160208510156125e05750805b601f840160051c820191505b81811015611510575f81556001016125ec565b81516001600160401b03811115612618576126186120ff565b61262c816126268454612583565b846125bb565b602080601f83116001811461265f575f84156126485750858301515b5f19600386901b1c1916600185901b17855561150e565b5f85815260208120601f198616915b8281101561268d5788860151825594840194600190910190840161266e565b50858210156126aa57878501515f19600388901b60f8161c191681555b5050505050600190811b01905550565b5f6001600160401b03808411156126d3576126d36120ff565b8360051b60206126e560208301612113565b868152918501916020810190368411156126fd575f80fd5b865b8481101561272f57803586811115612715575f80fd5b61272136828b01612143565b8452509183019183016126ff565b50979650505050505050565b6001600160a01b03841681526040602082018190528101829052818360608301375f818301606090810191909152601f909201601f1916010192915050565b5f6020828403121561278a575f80fd5b5051919050565b634e487b7160e01b5f52601160045260245ffd5b5f600182016127b6576127b6612791565b5060010190565b634e487b7160e01b5f52602160045260245ffd5b634e487b7160e01b5f52603260045260245ffd5b6001600160401b038616815260a060208201525f61280660a0830187612231565b61ffff9590951660408301525063ffffffff92909216606083015260809091015292915050565b6001600160a01b03858116825284166020820152604081018390526080606082018190525f9061285f90830184612231565b9695505050505050565b5f60208284031215612879575f80fd5b8151611aa7816121df565b5f835161289581846020880161220f565b8351908301906128a981836020880161220f565b01949350505050565b808201808211156103df576103df612791565b818103818111156103df576103df612791565b5f826128f257634e487b7160e01b5f52601260045260245ffd5b500690565b80820281158282048414176103df576103df612791565b600181815b8085111561294857815f190482111561292e5761292e612791565b8085161561293b57918102915b93841c9390800290612913565b509250929050565b5f8261295e575060016103df565b8161296a57505f6103df565b8160018114612980576002811461298a576129a6565b60019150506103df565b60ff84111561299b5761299b612791565b50506001821b6103df565b5060208310610133831016604e8410600b84101617156129c9575081810a6103df565b6129d3838361290e565b805f19048211156129e6576129e6612791565b029392505050565b5f611aa7838361295056fea26469706673582212204cdd7cf03e96282f880bf13b0541a2c4a4018dd1ead2a3f9a13fa7145bc8a48664736f6c63430008180033","linkReferences":{}},"methodIdentifiers":{"acceptOwnership()":"79ba5097","approve(address,uint256)":"095ea7b3","balanceOf(address)":"70a08231","donId()":"8dbe7b9d","getApproved(uint256)":"081812fc","handleOracleFulfillment(bytes32,bytes,bytes)":"0ca76175","isApprovedForAll(address,address)":"e985e9c5","name()":"06fdde03","owner()":"8da5cb5b","ownerOf(uint256)":"6352211e","pendingRequests(bytes32)":"2795ad20","requestMint(string[],string,bytes32)":"1dc559d9","safeTransferFrom(address,address,uint256)":"42842e0e","safeTransferFrom(address,address,uint256,bytes)":"b88d4fde","setApprovalForAll(address,bool)":"a22cb465","setDonId(bytes32)":"78ca5de7","setSourceCode(string)":"00b46767","setSubscriptionId(uint64)":"ea7b4f77","sourceCode()":"13c60177","subscriptionId()":"09c1ba2e","supportsInterface(bytes4)":"01ffc9a7","symbol()":"95d89b41","tokenDocumentHashes(uint256)":"80964805","tokenURI(uint256)":"c87b56dd","transferFrom(address,address,uint256)":"23b872dd","transferOwnership(address)":"f2fde38b"},"id":62}