{"abi":[{"type":"constructor","inputs":[{"name":"_router","type":"address","internalType":"address"},{"name":"_senderContract","type":"address","internalType":"address"}],"stateMutability":"nonpayable"},{"type":"receive","stateMutability":"payable"},{"type":"function","name":"SENDER_CONTRACT","inputs":[],"outputs":[{"name":"","type":"address","internalType":"address"}],"stateMutability":"view"},{"type":"function","name":"ccipReceive","inputs":[{"name":"message","type":"tuple","internalType":"struct Client.Any2EVMMessage","components":[{"name":"messageId","type":"bytes32","internalType":"bytes32"},{"name":"sourceChainSelector","type":"uint64","internalType":"uint64"},{"name":"sender","type":"bytes","internalType":"bytes"},{"name":"data","type":"bytes","internalType":"bytes"},{"name":"destTokenAmounts","type":"tuple[]","internalType":"struct Client.EVMTokenAmount[]","components":[{"name":"token","type":"address","internalType":"address"},{"name":"amount","type":"uint256","internalType":"uint256"}]}]}],"outputs":[],"stateMutability":"nonpayable"},{"type":"function","name":"getRouter","inputs":[],"outputs":[{"name":"","type":"address","internalType":"address"}],"stateMutability":"view"},{"type":"function","name":"sendCrossChainVerification","inputs":[{"name":"destinationChainSelector","type":"uint64","internalType":"uint64"},{"name":"receiver","type":"address","internalType":"address"},{"name":"verificationData","type":"string","internalType":"string"}],"outputs":[{"name":"messageId","type":"bytes32","internalType":"bytes32"}],"stateMutability":"payable"},{"type":"function","name":"supportsInterface","inputs":[{"name":"interfaceId","type":"bytes4","internalType":"bytes4"}],"outputs":[{"name":"","type":"bool","internalType":"bool"}],"stateMutability":"pure"},{"type":"event","name":"MessageReceived","inputs":[{"name":"messageId","type":"bytes32","indexed":true,"internalType":"bytes32"},{"name":"sourceChainSelector","type":"uint64","indexed":true,"internalType":"uint64"},{"name":"sender","type":"address","indexed":false,"internalType":"address"},{"name":"text","type":"string","indexed":false,"internalType":"string"}],"anonymous":false},{"type":"event","name":"MessageSent","inputs":[{"name":"messageId","type":"bytes32","indexed":true,"internalType":"bytes32"},{"name":"destinationChainSelector","type":"uint64","indexed":true,"internalType":"uint64"}],"anonymous":false},{"type":"error","name":"InvalidRouter","inputs":[{"name":"router","type":"address","internalType":"address"}]}],"bytecode":{"object":"0x60c060405234801561000f575f80fd5b50604051610d65380380610d6583398101604081905261002e9161008f565b816001600160a01b03811661005c576040516335fdcccd60e21b81525f600482015260240160405180910390fd5b6001600160a01b039081166080521660a052506100c0565b80516001600160a01b038116811461008a575f80fd5b919050565b5f80604083850312156100a0575f80fd5b6100a983610074565b91506100b760208401610074565b90509250929050565b60805160a051610c776100ee5f395f818161012401526105a801525f818160db01526104090152610c775ff3fe60806040526004361061004c575f3560e01c806301ffc9a714610057578063338000ec1461008b57806385572ffb146100ac578063b0f479a1146100cd578063b4df556514610113575f80fd5b3661005357005b5f80fd5b348015610062575f80fd5b506100766100713660046106bf565b610146565b60405190151581526020015b60405180910390f35b61009e61009936600461080b565b61017c565b604051908152602001610082565b3480156100b7575f80fd5b506100cb6100c6366004610879565b6103fe565b005b3480156100d8575f80fd5b507f00000000000000000000000000000000000000000000000000000000000000005b6040516001600160a01b039091168152602001610082565b34801561011e575f80fd5b506100fb7f000000000000000000000000000000000000000000000000000000000000000081565b5f6001600160e01b031982166385572ffb60e01b148061017657506001600160e01b031982166301ffc9a760e01b145b92915050565b5f8061018984845f61045d565b90505f306001600160a01b031663b0f479a16040518163ffffffff1660e01b8152600401602060405180830381865afa1580156101c8573d5f803e3d5ffd5b505050506040513d601f19601f820116820180604052508101906101ec91906108af565b90505f816001600160a01b03166320487ded88856040518363ffffffff1660e01b815260040161021d929190610917565b602060405180830381865afa158015610238573d5f803e3d5ffd5b505050506040513d601f19601f8201168201806040525081019061025c91906109f1565b9050803410156102b35760405162461bcd60e51b815260206004820181905260248201527f4e6f7420656e6f756768204554482073656e7420666f7220434349502066656560448201526064015b60405180910390fd5b6040516396f4e9f960e01b81526001600160a01b038316906396f4e9f99083906102e3908b908890600401610917565b60206040518083038185885af11580156102ff573d5f803e3d5ffd5b50505050506040513d601f19601f8201168201806040525081019061032491906109f1565b9350803411156103bf575f3361033a8334610a08565b6040515f81818185875af1925050503d805f8114610373576040519150601f19603f3d011682016040523d82523d5f602084013e610378565b606091505b50509050806103bd5760405162461bcd60e51b8152602060048201526011602482015270115512081c99599d5b990819985a5b1959607a1b60448201526064016102aa565b505b6040516001600160401b0388169085907f3d268d705c99ec99e84748365f374dea1d745080faad9ddfa8c2715d20b50cb0905f90a35050509392505050565b336001600160a01b037f00000000000000000000000000000000000000000000000000000000000000001614610449576040516335fdcccd60e21b81523360048201526024016102aa565b61045a61045582610aec565b6105a6565b50565b6104976040518060a001604052806060815260200160608152602001606081526020015f6001600160a01b03168152602001606081525090565b6040805160a081019091526001600160a01b03851660c08201528060e081016040516020818303038152906040528152602001846040516020016104db9190610b93565b60408051601f1981840301815291905281526020015f60405190808252806020026020018201604052801561053557816020015b604080518082019091525f808252602082015281526020019060019003908161050f5790505b508152602001836001600160a01b0316815260200161059c604051806020016040528062030d4081525060408051915160248084019190915281518084039091018152604490920190526020810180516001600160e01b03166397a657c960e01b17905290565b9052949350505050565b7f00000000000000000000000000000000000000000000000000000000000000006001600160a01b031681604001518060200190518101906105e891906108af565b6001600160a01b03161461063e5760405162461bcd60e51b815260206004820152601860248201527f556e617574686f72697a656420434349502073656e646572000000000000000060448201526064016102aa565b5f81606001518060200190518101906106579190610ba5565b905081602001516001600160401b0316825f01517fb1e312a29937cc11967b0e4a346fef1ae132424ebaba9dc6d90249dba053e87c84604001518060200190518101906106a491906108af565b846040516106b3929190610c16565b60405180910390a35050565b5f602082840312156106cf575f80fd5b81356001600160e01b0319811681146106e6575f80fd5b9392505050565b80356001600160401b0381168114610703575f80fd5b919050565b6001600160a01b038116811461045a575f80fd5b634e487b7160e01b5f52604160045260245ffd5b604080519081016001600160401b03811182821017156107525761075261071c565b60405290565b60405160a081016001600160401b03811182821017156107525761075261071c565b604051601f8201601f191681016001600160401b03811182821017156107a2576107a261071c565b604052919050565b5f6001600160401b038211156107c2576107c261071c565b50601f01601f191660200190565b5f6107e26107dd846107aa565b61077a565b90508281528383830111156107f5575f80fd5b828260208301375f602084830101529392505050565b5f805f6060848603121561081d575f80fd5b610826846106ed565b9250602084013561083681610708565b915060408401356001600160401b03811115610850575f80fd5b8401601f81018613610860575f80fd5b61086f868235602084016107d0565b9150509250925092565b5f60208284031215610889575f80fd5b81356001600160401b0381111561089e575f80fd5b820160a081850312156106e6575f80fd5b5f602082840312156108bf575f80fd5b81516106e681610708565b5f5b838110156108e45781810151838201526020016108cc565b50505f910152565b5f81518084526109038160208601602086016108ca565b601f01601f19169290920160200192915050565b5f60406001600160401b03851683526020604081850152845160a0604086015261094460e08601826108ec565b905081860151603f198087840301606088015261096183836108ec565b6040890151888203830160808a0152805180835290860194505f9350908501905b808410156109b457845180516001600160a01b0316835286015186830152938501936001939093019290860190610982565b5060608901516001600160a01b031660a08901526080890151888203830160c08a015295506109e381876108ec565b9a9950505050505050505050565b5f60208284031215610a01575f80fd5b5051919050565b8181038181111561017657634e487b7160e01b5f52601160045260245ffd5b5f82601f830112610a36575f80fd5b6106e6838335602085016107d0565b5f82601f830112610a54575f80fd5b813560206001600160401b03821115610a6f57610a6f61071c565b610a7d818360051b0161077a565b82815260069290921b84018101918181019086841115610a9b575f80fd5b8286015b84811015610ae15760408189031215610ab6575f80fd5b610abe610730565b8135610ac981610708565b81528185013585820152835291830191604001610a9f565b509695505050505050565b5f60a08236031215610afc575f80fd5b610b04610758565b82358152610b14602084016106ed565b602082015260408301356001600160401b0380821115610b32575f80fd5b610b3e36838701610a27565b60408401526060850135915080821115610b56575f80fd5b610b6236838701610a27565b60608401526080850135915080821115610b7a575f80fd5b50610b8736828601610a45565b60808301525092915050565b602081525f6106e660208301846108ec565b5f60208284031215610bb5575f80fd5b81516001600160401b03811115610bca575f80fd5b8201601f81018413610bda575f80fd5b8051610be86107dd826107aa565b818152856020838501011115610bfc575f80fd5b610c0d8260208301602086016108ca565b95945050505050565b6001600160a01b03831681526040602082018190525f90610c39908301846108ec565b94935050505056fea26469706673582212206c048134167883dfc2c6f0f1458d447144839f2c220edfafefc331a46d5c9ae264736f6c63430008180033","linkReferences":{}},"methodIdentifiers":{"SENDER_CONTRACT()":"b4df5565","ccipReceive((bytes32,uint64,bytes,bytes,(address,uint256)[]))":"85572ffb","getRouter()":"b0f479a1","sendCrossChainVerification(uint64,address,string)":"338000ec","supportsInterface(bytes4)":"01ffc9a7"},"id":60}