{"abi":[{"type":"constructor","inputs":[{"name":"uri","type":"string","internalType":"string"},{"name":"_reserveFeed","type":"address","internalType":"address"}],"stateMutability":"nonpayable"},{"type":"function","name":"CARBON_CREDIT","inputs":[],"outputs":[{"name":"","type":"uint256","internalType":"uint256"}],"stateMutability":"view"},{"type":"function","name":"balanceOf","inputs":[{"name":"account","type":"address","internalType":"address"},{"name":"id","type":"uint256","internalType":"uint256"}],"outputs":[{"name":"","type":"uint256","internalType":"uint256"}],"stateMutability":"view"},{"type":"function","name":"balanceOfBatch","inputs":[{"name":"accounts","type":"address[]","internalType":"address[]"},{"name":"ids","type":"uint256[]","internalType":"uint256[]"}],"outputs":[{"name":"","type":"uint256[]","internalType":"uint256[]"}],"stateMutability":"view"},{"type":"function","name":"checkUpkeep","inputs":[{"name":"","type":"bytes","internalType":"bytes"}],"outputs":[{"name":"upkeepNeeded","type":"bool","internalType":"bool"},{"name":"performData","type":"bytes","internalType":"bytes"}],"stateMutability":"view"},{"type":"function","name":"getLatestReserve","inputs":[],"outputs":[{"name":"","type":"uint256","internalType":"uint256"}],"stateMutability":"view"},{"type":"function","name":"isApprovedForAll","inputs":[{"name":"account","type":"address","internalType":"address"},{"name":"operator","type":"address","internalType":"address"}],"outputs":[{"name":"","type":"bool","internalType":"bool"}],"stateMutability":"view"},{"type":"function","name":"lastReserveBalance","inputs":[],"outputs":[{"name":"","type":"uint256","internalType":"uint256"}],"stateMutability":"view"},{"type":"function","name":"mint","inputs":[{"name":"account","type":"address","internalType":"address"},{"name":"amount","type":"uint256","internalType":"uint256"}],"outputs":[],"stateMutability":"nonpayable"},{"type":"function","name":"performUpkeep","inputs":[{"name":"performData","type":"bytes","internalType":"bytes"}],"outputs":[],"stateMutability":"nonpayable"},{"type":"function","name":"reserveFeed","inputs":[],"outputs":[{"name":"","type":"address","internalType":"contract AggregatorV3Interface"}],"stateMutability":"view"},{"type":"function","name":"safeBatchTransferFrom","inputs":[{"name":"from","type":"address","internalType":"address"},{"name":"to","type":"address","internalType":"address"},{"name":"ids","type":"uint256[]","internalType":"uint256[]"},{"name":"values","type":"uint256[]","internalType":"uint256[]"},{"name":"data","type":"bytes","internalType":"bytes"}],"outputs":[],"stateMutability":"nonpayable"},{"type":"function","name":"safeTransferFrom","inputs":[{"name":"from","type":"address","internalType":"address"},{"name":"to","type":"address","internalType":"address"},{"name":"id","type":"uint256","internalType":"uint256"},{"name":"value","type":"uint256","internalType":"uint256"},{"name":"data","type":"bytes","internalType":"bytes"}],"outputs":[],"stateMutability":"nonpayable"},{"type":"function","name":"setApprovalForAll","inputs":[{"name":"operator","type":"address","internalType":"address"},{"name":"approved","type":"bool","internalType":"bool"}],"outputs":[],"stateMutability":"nonpayable"},{"type":"function","name":"supportsInterface","inputs":[{"name":"interfaceId","type":"bytes4","internalType":"bytes4"}],"outputs":[{"name":"","type":"bool","internalType":"bool"}],"stateMutability":"view"},{"type":"function","name":"totalMinted","inputs":[],"outputs":[{"name":"","type":"uint256","internalType":"uint256"}],"stateMutability":"view"},{"type":"function","name":"uri","inputs":[{"name":"","type":"uint256","internalType":"uint256"}],"outputs":[{"name":"","type":"string","internalType":"string"}],"stateMutability":"view"},{"type":"event","name":"ApprovalForAll","inputs":[{"name":"account","type":"address","indexed":true,"internalType":"address"},{"name":"operator","type":"address","indexed":true,"internalType":"address"},{"name":"approved","type":"bool","indexed":false,"internalType":"bool"}],"anonymous":false},{"type":"event","name":"ReserveSynced","inputs":[{"name":"newReserveBalance","type":"uint256","indexed":false,"internalType":"uint256"}],"anonymous":false},{"type":"event","name":"TransferBatch","inputs":[{"name":"operator","type":"address","indexed":true,"internalType":"address"},{"name":"from","type":"address","indexed":true,"internalType":"address"},{"name":"to","type":"address","indexed":true,"internalType":"address"},{"name":"ids","type":"uint256[]","indexed":false,"internalType":"uint256[]"},{"name":"values","type":"uint256[]","indexed":false,"internalType":"uint256[]"}],"anonymous":false},{"type":"event","name":"TransferSingle","inputs":[{"name":"operator","type":"address","indexed":true,"internalType":"address"},{"name":"from","type":"address","indexed":true,"internalType":"address"},{"name":"to","type":"address","indexed":true,"internalType":"address"},{"name":"id","type":"uint256","indexed":false,"internalType":"uint256"},{"name":"value","type":"uint256","indexed":false,"internalType":"uint256"}],"anonymous":false},{"type":"event","name":"URI","inputs":[{"name":"value","type":"string","indexed":false,"internalType":"string"},{"name":"id","type":"uint256","indexed":true,"internalType":"uint256"}],"anonymous":false},{"type":"error","name":"ERC1155InsufficientBalance","inputs":[{"name":"sender","type":"address","internalType":"address"},{"name":"balance","type":"uint256","internalType":"uint256"},{"name":"needed","type":"uint256","internalType":"uint256"},{"name":"tokenId","type":"uint256","internalType":"uint256"}]},{"type":"error","name":"ERC1155InvalidApprover","inputs":[{"name":"approver","type":"address","internalType":"address"}]},{"type":"error","name":"ERC1155InvalidArrayLength","inputs":[{"name":"idsLength","type":"uint256","internalType":"uint256"},{"name":"valuesLength","type":"uint256","internalType":"uint256"}]},{"type":"error","name":"ERC1155InvalidOperator","inputs":[{"name":"operator","type":"address","internalType":"address"}]},{"type":"error","name":"ERC1155InvalidReceiver","inputs":[{"name":"receiver","type":"address","internalType":"address"}]},{"type":"error","name":"ERC1155InvalidSender","inputs":[{"name":"sender","type":"address","internalType":"address"}]},{"type":"error","name":"ERC1155MissingApprovalForAll","inputs":[{"name":"operator","type":"address","internalType":"address"},{"name":"owner","type":"address","internalType":"address"}]}],"bytecode":{"object":"0x608060405234801562000010575f80fd5b50604051620017f0380380620017f08339810160408190526200003391620000a9565b816200003f8162000067565b50600380546001600160a01b0319166001600160a01b039290921691909117905550620002e0565b600262000075828262000214565b5050565b634e487b7160e01b5f52604160045260245ffd5b80516001600160a01b0381168114620000a4575f80fd5b919050565b5f8060408385031215620000bb575f80fd5b82516001600160401b0380821115620000d2575f80fd5b818501915085601f830112620000e6575f80fd5b815181811115620000fb57620000fb62000079565b604051601f8201601f19908116603f0116810190838211818310171562000126576200012662000079565b8160405282815260209350888484870101111562000142575f80fd5b5f91505b8282101562000165578482018401518183018501529083019062000146565b5f8484830101528096505050506200017f8186016200008d565b925050509250929050565b600181811c908216806200019f57607f821691505b602082108103620001be57634e487b7160e01b5f52602260045260245ffd5b50919050565b601f8211156200020f57805f5260205f20601f840160051c81016020851015620001eb5750805b601f840160051c820191505b818110156200020c575f8155600101620001f7565b50505b505050565b81516001600160401b0381111562000230576200023062000079565b62000248816200024184546200018a565b84620001c4565b602080601f8311600181146200027e575f8415620002665750858301515b5f19600386901b1c1916600185901b178555620002d8565b5f85815260208120601f198616915b82811015620002ae578886015182559484019460019091019084016200028d565b5085821015620002cc57878501515f19600388901b60f8161c191681555b505060018460011b0185555b505050505050565b61150280620002ee5f395ff3fe608060405234801561000f575f80fd5b50600436106100fa575f3560e01c80634585e33b11610093578063a22cb46511610063578063a22cb46514610227578063a2309ff81461023a578063e985e9c514610243578063f242432a1461027e575f80fd5b80634585e33b146101cb5780634e1273f4146101de5780635ec3f74e146101fe5780636e04ff0d14610206575f80fd5b80632265d2d8116100ce5780632265d2d8146101925780632eb2c2d61461019b57806330cc4d75146101b057806340c10f19146101b8575f80fd5b8062fdd58e146100fe57806301ffc9a7146101245780630e89341c146101475780631185710614610167575b5f80fd5b61011161010c366004610e04565b610291565b6040519081526020015b60405180910390f35b610137610132366004610e44565b6102b8565b604051901515815260200161011b565b61015a610155366004610e66565b610307565b60405161011b9190610ec0565b60035461017a906001600160a01b031681565b6040516001600160a01b03909116815260200161011b565b61011160045481565b6101ae6101a9366004611012565b610399565b005b6101116103b8565b6101ae6101c6366004610e04565b610485565b6101ae6101d93660046110b5565b610525565b6101f16101ec366004611121565b6105c7565b60405161011b9190611215565b610111600181565b6102196102143660046110b5565b610692565b60405161011b929190611227565b6101ae610235366004611249565b6106d4565b61011160055481565b610137610251366004611282565b6001600160a01b039182165f90815260016020908152604080832093909416825291909152205460ff1690565b6101ae61028c3660046112b3565b6106e3565b5f818152602081815260408083206001600160a01b03861684529091529020545b92915050565b5f6001600160e01b03198216636cdb3d1360e11b14806102e857506001600160e01b031982166303a24d0760e21b145b806102b257506301ffc9a760e01b6001600160e01b03198316146102b2565b60606002805461031690611313565b80601f016020809104026020016040519081016040528092919081815260200182805461034290611313565b801561038d5780601f106103645761010080835404028352916020019161038d565b820191905f5260205f20905b81548152906001019060200180831161037057829003601f168201915b50505050509050919050565b6103a4335b866106f9565b6103b18585858585610771565b5050505050565b5f8060035f9054906101000a90046001600160a01b03166001600160a01b031663feaf968c6040518163ffffffff1660e01b815260040160a060405180830381865afa15801561040a573d5f803e3d5ffd5b505050506040513d601f19601f8201168201806040525081019061042e9190611364565b5050509150505f8112156104805760405162461bcd60e51b8152602060048201526014602482015273496e76616c69642072657365727665206461746160601b60448201526064015b60405180910390fd5b919050565b5f61048e6103b8565b9050808260055461049f91906113b0565b11156104ed5760405162461bcd60e51b815260206004820152601d60248201527f4e6f7420656e6f756768206f66662d636861696e2072657365727665730000006044820152606401610477565b8160055f8282546104fe91906113b0565b925050819055506105208360018460405180602001604052805f8152506107d1565b505050565b5f61053282840184610e66565b905061053c6103b8565b811461058a5760405162461bcd60e51b815260206004820152601e60248201527f52657365727665206d69736d6174636820647572696e672075706b65657000006044820152606401610477565b60048190556040518181527f4f8e007c2121435aeca2eb549bc0174433aa12dc57d30e12e4c166376b6e932c9060200160405180910390a1505050565b606081518351146105f85781518351604051635b05999160e01b815260048101929092526024820152604401610477565b5f835167ffffffffffffffff81111561061357610613610ed2565b60405190808252806020026020018201604052801561063c578160200160208202803683370190505b5090505f5b845181101561068a5760208082028601015161066590602080840287010151610291565b828281518110610677576106776113cf565b6020908102919091010152600101610641565b509392505050565b5f60605f61069e6103b8565b90506004548114159250806040516020016106bb91815260200190565b6040516020818303038152906040529150509250929050565b6106df338383610835565b5050565b6106ec3361039e565b6103b185858585856108f2565b816001600160a01b0316816001600160a01b03161415801561074057506001600160a01b038082165f9081526001602090815260408083209386168352929052205460ff16155b156106df5760405163711bec9160e11b81526001600160a01b03808416600483015282166024820152604401610477565b6001600160a01b03841661079a57604051632bfa23e760e11b81525f6004820152602401610477565b6001600160a01b0385166107c257604051626a0d4560e21b81525f6004820152602401610477565b6103b18585858585600161097f565b6001600160a01b0384166107fa57604051632bfa23e760e11b81525f6004820152602401610477565b6040805160018082526020820186905281830190815260608201859052608082019092529061082d5f878484878461097f565b505050505050565b6001600160a01b03831661085e57604051631f18c42760e11b81525f6004820152602401610477565b6001600160a01b0382166108865760405162ced3e160e81b81525f6004820152602401610477565b6001600160a01b038381165f81815260016020908152604080832094871680845294825291829020805460ff191686151590811790915591519182527f17307eab39ab6107e8899845ad3d59bd9653f200f220920489ca2b5937696c31910160405180910390a3505050565b6001600160a01b03841661091b57604051632bfa23e760e11b81525f6004820152602401610477565b6001600160a01b03851661094357604051626a0d4560e21b81525f6004820152602401610477565b6040805160018082526020820186905281830190815260608201859052608082019092529061097687878484875f61097f565b50505050505050565b61098b868686866109d7565b6001600160a01b0385161561082d573381156109b4576109af818888888888610be6565b610976565b602085810151908501516109cc838a8a85858a610d07565b505050505050505050565b8051825114610a065781518151604051635b05999160e01b815260048101929092526024820152604401610477565b335f5b8351811015610b08576020818102858101820151908501909101516001600160a01b03881615610aba575f828152602081815260408083206001600160a01b038c16845290915290205481811015610a94576040516303dee4c560e01b81526001600160a01b038a166004820152602481018290526044810183905260648101849052608401610477565b5f838152602081815260408083206001600160a01b038d16845290915290209082900390555b6001600160a01b03871615610afe575f828152602081815260408083206001600160a01b038b16845290915281208054839290610af89084906113b0565b90915550505b5050600101610a09565b508251600103610b885760208301515f906020840151909150856001600160a01b0316876001600160a01b0316846001600160a01b03167fc3d58168c5ae7397731d063d5bbf3d657854427343f4c083240f7aacaa2d0f628585604051610b79929190918252602082015260400190565b60405180910390a450506103b1565b836001600160a01b0316856001600160a01b0316826001600160a01b03167f4a39dc06d4c0dbc64b70af90fd698a233a518aa5d07e595d983b8c0526c8f7fb8686604051610bd79291906113e3565b60405180910390a45050505050565b6001600160a01b0384163b1561082d5760405163bc197c8160e01b81526001600160a01b0385169063bc197c8190610c2a9089908990889088908890600401611410565b6020604051808303815f875af1925050508015610c64575060408051601f3d908101601f19168201909252610c619181019061146d565b60015b610ccb573d808015610c91576040519150601f19603f3d011682016040523d82523d5f602084013e610c96565b606091505b5080515f03610cc357604051632bfa23e760e11b81526001600160a01b0386166004820152602401610477565b805160208201fd5b6001600160e01b0319811663bc197c8160e01b1461097657604051632bfa23e760e11b81526001600160a01b0386166004820152602401610477565b6001600160a01b0384163b1561082d5760405163f23a6e6160e01b81526001600160a01b0385169063f23a6e6190610d4b9089908990889088908890600401611488565b6020604051808303815f875af1925050508015610d85575060408051601f3d908101601f19168201909252610d829181019061146d565b60015b610db2573d808015610c91576040519150601f19603f3d011682016040523d82523d5f602084013e610c96565b6001600160e01b0319811663f23a6e6160e01b1461097657604051632bfa23e760e11b81526001600160a01b0386166004820152602401610477565b80356001600160a01b0381168114610480575f80fd5b5f8060408385031215610e15575f80fd5b610e1e83610dee565b946020939093013593505050565b6001600160e01b031981168114610e41575f80fd5b50565b5f60208284031215610e54575f80fd5b8135610e5f81610e2c565b9392505050565b5f60208284031215610e76575f80fd5b5035919050565b5f81518084525f5b81811015610ea157602081850181015186830182015201610e85565b505f602082860101526020601f19601f83011685010191505092915050565b602081525f610e5f6020830184610e7d565b634e487b7160e01b5f52604160045260245ffd5b604051601f8201601f1916810167ffffffffffffffff81118282101715610f0f57610f0f610ed2565b604052919050565b5f67ffffffffffffffff821115610f3057610f30610ed2565b5060051b60200190565b5f82601f830112610f49575f80fd5b81356020610f5e610f5983610f17565b610ee6565b8083825260208201915060208460051b870101935086841115610f7f575f80fd5b602086015b84811015610f9b5780358352918301918301610f84565b509695505050505050565b5f82601f830112610fb5575f80fd5b813567ffffffffffffffff811115610fcf57610fcf610ed2565b610fe2601f8201601f1916602001610ee6565b818152846020838601011115610ff6575f80fd5b816020850160208301375f918101602001919091529392505050565b5f805f805f60a08688031215611026575f80fd5b61102f86610dee565b945061103d60208701610dee565b9350604086013567ffffffffffffffff80821115611059575f80fd5b61106589838a01610f3a565b9450606088013591508082111561107a575f80fd5b61108689838a01610f3a565b9350608088013591508082111561109b575f80fd5b506110a888828901610fa6565b9150509295509295909350565b5f80602083850312156110c6575f80fd5b823567ffffffffffffffff808211156110dd575f80fd5b818501915085601f8301126110f0575f80fd5b8135818111156110fe575f80fd5b86602082850101111561110f575f80fd5b60209290920196919550909350505050565b5f8060408385031215611132575f80fd5b823567ffffffffffffffff80821115611149575f80fd5b818501915085601f83011261115c575f80fd5b8135602061116c610f5983610f17565b82815260059290921b8401810191818101908984111561118a575f80fd5b948201945b838610156111af576111a086610dee565b8252948201949082019061118f565b965050860135925050808211156111c4575f80fd5b506111d185828601610f3a565b9150509250929050565b5f815180845260208085019450602084015f5b8381101561120a578151875295820195908201906001016111ee565b509495945050505050565b602081525f610e5f60208301846111db565b8215158152604060208201525f6112416040830184610e7d565b949350505050565b5f806040838503121561125a575f80fd5b61126383610dee565b915060208301358015158114611277575f80fd5b809150509250929050565b5f8060408385031215611293575f80fd5b61129c83610dee565b91506112aa60208401610dee565b90509250929050565b5f805f805f60a086880312156112c7575f80fd5b6112d086610dee565b94506112de60208701610dee565b93506040860135925060608601359150608086013567ffffffffffffffff811115611307575f80fd5b6110a888828901610fa6565b600181811c9082168061132757607f821691505b60208210810361134557634e487b7160e01b5f52602260045260245ffd5b50919050565b805169ffffffffffffffffffff81168114610480575f80fd5b5f805f805f60a08688031215611378575f80fd5b6113818661134b565b94506020860151935060408601519250606086015191506113a46080870161134b565b90509295509295909350565b808201808211156102b257634e487b7160e01b5f52601160045260245ffd5b634e487b7160e01b5f52603260045260245ffd5b604081525f6113f560408301856111db565b828103602084015261140781856111db565b95945050505050565b6001600160a01b0386811682528516602082015260a0604082018190525f9061143b908301866111db565b828103606084015261144d81866111db565b905082810360808401526114618185610e7d565b98975050505050505050565b5f6020828403121561147d575f80fd5b8151610e5f81610e2c565b6001600160a01b03868116825285166020820152604081018490526060810183905260a0608082018190525f906114c190830184610e7d565b97965050505050505056fea2646970667358221220bcb014f48b46b04bdc02bd75245a4e2059918884602d27dfdb11b192716b09cf64736f6c63430008180033","linkReferences":{}},"methodIdentifiers":{"CARBON_CREDIT()":"5ec3f74e","balanceOf(address,uint256)":"00fdd58e","balanceOfBatch(address[],uint256[])":"4e1273f4","checkUpkeep(bytes)":"6e04ff0d","getLatestReserve()":"30cc4d75","isApprovedForAll(address,address)":"e985e9c5","lastReserveBalance()":"2265d2d8","mint(address,uint256)":"40c10f19","performUpkeep(bytes)":"4585e33b","reserveFeed()":"11857106","safeBatchTransferFrom(address,address,uint256[],uint256[],bytes)":"2eb2c2d6","safeTransferFrom(address,address,uint256,uint256,bytes)":"f242432a","setApprovalForAll(address,bool)":"a22cb465","supportsInterface(bytes4)":"01ffc9a7","totalMinted()":"a2309ff8","uri(uint256)":"0e89341c"},"id":61}